:100000000C945A000C946F000C946F000C946F00C9
:100010000C946F000C946F000C946F000C946F00A4
:100020000C946F000C946F000C946F000C946F0094
:100030000C946F000C946F000C946F000C946F0084
:100040000C946F000C946F000C94FB000C946F00E8
:100050000C946F000C946F000C946F000C946F0064
:100060000C946F000C946F000C946F000C946F0054
:100070000C946F000C946F000C946F000C946F0044
:100080000C946F000C946F000C946F000C946F0034
:100090000C946F000C946F000C946F000C946F0024
:1000A0000C946F000C946F000C946F000C946F0014
:1000B0000C946F0011241FBECFEFD8E0DEBFCDBF80
:1000C00011E0A0E0B1E0E8E4F2E002C005900D929A
:1000D000A231B107D9F70E9471000C9422010C944F
:1000E00000008FEF84B991E89AB997E097B915B8F5
:1000F0001BB890E498B91092C5008093C40088E9B9
:100100008093C10086E08093C2007894FFCF843052
:100110003CF088B18D7788B988B1846088B908953A
:1001200088B1826088B988B18B7788B90895875083
:10013000823020F488B1816088B9089588B18E77C3
:1001400088B9089585B1803F49F085B1803731F095
:1001500085B1803319F085B1803149F4369904C0F6
:100160008BB181608BB908958BB18E7F8BB9089567
:10017000FF920F931F93CF93DF93CDB7DEB76297B4
:100180000FB6F894DEBF0FBECDBFF82E82E1E0E0DF
:10019000F1E0DE01119601900D928A95E1F70F2DA5
:1001A000000F110B81E090E08C0F9D1F080F191FAD
:1001B000F801808185B98F2D0E9497008F2D0E94B4
:1001C0008700F8018081918190FF04C08BB1806825
:1001D0008BB903C08BB18F778BB90E94A200629656
:1001E0000FB6F894DEBF0FBECDBFDF91CF911F9148
:1001F0000F91FF9008951F920F920FB60F92112446
:100200002F933F934F935F936F937F938F939F931E
:10021000AF93BF93EF93FF938091C60080530E94EA
:10022000B800FF91EF91BF91AF919F918F917F9116
:100230006F915F914F913F912F910F900FBE0F9053
:080240001F901895F894FFCF00
:10024800F0007000300010000F00070003000100EC
:020258000001A3
:00000001FF
