:100000000C945A000C9451010C9477000C947700D6
:100010000C9477000C9477000C9477000C94770084
:100020000C9477000C9477000C9477000C94770074
:100030000C9477000C9477000C9479000C94770062
:100040000C9477000C9477000C941A010C947700B0
:100050000C9477000C9477000C9477000C94770044
:100060000C9477000C9477000C9477000C94770034
:100070000C9477000C9477000C9477000C94770024
:100080000C9477000C9477000C9477000C94770014
:100090000C9477000C9477000C9477000C94770004
:1000A0000C9477000C9477000C9477000C947700F4
:1000B0000C94770011241FBECFEFD8E0DEBFCDBF78
:1000C00011E0A0E0B1E0ECE7F3E002C005900D9292
:1000D000A231B107D9F721E0A2E1B1E001C01D9240
:1000E000A631B207E1F70E948E010C94BC010C947A
:1000F00000001F920F920FB60F9211242F933F937F
:100100004F935F936F937F938F939F93AF93BF931F
:10011000EF93FF938091120190911301A09114012C
:10012000B0911501BC01CD016F5F7F4F8F4F9F4F85
:100130006093120170931301809314019093150141
:1001400024EF31E040E050E00E949A01672B682BD9
:10015000692B19F48BB18E7F8BB9FF91EF91BF9111
:10016000AF919F918F917F916F915F914F913F914F
:100170002F910F900FBE0F901F90189584303CF078
:1001800088B18D7788B988B1846088B9089588B1BD
:10019000826088B988B18B7788B90895875082309A
:1001A00020F488B1816088B9089588B18E7788B9C4
:1001B0000895FF920F931F93CF93DF93CDB7DEB7D0
:1001C00062970FB6F894DEBF0FBECDBFF82E82E166
:1001D000E0E0F1E0DE01119601900D928A95E1F7E1
:1001E0000F2D000F110B81E090E08C0F9D1F080F69
:1001F000191FF801808185B98F2D0E94CE008F2DA7
:100200000E94BE00F8018081918190FF04C08BB1F3
:1002100080688BB903C08BB18F778BB962960FB6AC
:10022000F894DEBF0FBECDBFDF91CF911F910F912C
:10023000FF9008951F920F920FB60F9211242F93E3
:100240003F934F935F936F937F938F939F93AF935E
:10025000BF93EF93FF938091C60080530E94D90013
:10026000FF91EF91BF91AF919F918F917F916F918E
:100270005F914F913F912F910F900FBE0F901F9064
:10028000189585B1803F49F085B1803731F085B14F
:10029000803319F085B1803119F48BB181608BB94D
:1002A00008951F920F920FB60F9211242F933F9330
:1002B0004F935F936F937F938F939F93AF93BF936E
:1002C000EF93FF930E944101FF91EF91BF91AF9196
:1002D0009F918F917F916F915F914F913F912F915E
:1002E0000F900FBE0F901F90189582E080936900C9
:1002F00091E09DBB84BD93E095BD99EF97BD809340
:100300006E001092C5008FEF8093C40088E980933F
:10031000C10086E08093C200789408958FEF84B97D
:1003200081E88AB987E087B915B884E08BB90E9463
:100330007501FFCFA1E21A2EAA1BBB1BFD010DC048
:10034000AA1FBB1FEE1FFF1FA217B307E407F50785
:1003500020F0A21BB30BE40BF50B661F771F881F61
:10036000991F1A9469F760957095809590959B01F7
:0C037000AC01BD01CF010895F894FFCF4F
:10037C00F0007000300010000F00070003000100B7
:02038C0000016E
:00000001FF
