:100000000C944A010C9459070C9467010C946701F5
:100010000C9467010C9420050C9467010C94670103
:100020000C9467010C9467010C9467010C946701B0
:100030000C9467010C9467010C94EC050C94670117
:100040000C9467010C9467010C9467010C94670190
:100050000C9467010C9467010C9467010C94670180
:100060000C9467010C9467010C9467010C94670170
:100070000C9467010C9467010C9467010C94670160
:100080000C9467010C9467010C9467010C94670150
:100090000C9467010C9467010C9467010C94670140
:1000A0000C9467010C9467010C9467010C94670130
:1000B0000C946701000000000000005F00000007D2
:1000C000000700147F147F14242A7F2A12231308A8
:1000D000646236495522500005030000001C22418D
:1000E000000041221C0014083E081408083E0808BD
:1000F0000050300000080808080800606000002078
:10010000100804023E5149453E00427F40004261D2
:100110005149462141454B311814127F102745455E
:1001200045393C4A49493001710905033649494975
:1001300036064949291E00363600000056360000B2
:10014000081422410014141414140041221408024B
:1001500001510906324979413E7E1111117E7F49D4
:100160004949363E414141227F4141221C7F494954
:1001700049417F090909013E4149497A7F08080838
:100180007F00417F41002040413F017F0814224110
:100190007F404040407F020C027F7F0408107F3E7A
:1001A0004141413E7F090909063E4151215E7F09D7
:1001B000192946464949493101017F01013F404023
:1001C000403F1F2040201F3F4038403F6314081429
:1001D0006307087008076151494543007F414100AA
:1001E00002040810200041417F0004020102044083
:1001F00040404040000102040020545454787F489D
:100200004444383844444420384444487F385454A3
:100210005418087E0901020C5252523E7F08040411
:100220007800447D40002040443D007F1028440079
:1002300000417F40007C041804787C08040478386E
:10024000444444387C14141408081414187C7C08A2
:100250000404084854545420043F4440203C404087
:10026000207C1C2040201C3C4030403C442810286E
:10027000440C5050503C4464544C440008364100F7
:1002800000007F0000004136080010080810080038
:100290000000000011241FBECFEFD8E0DEBFCDBFAD
:1002A00011E0A0E0B1E0E8EEFBE102C005900D92A4
:1002B000A234B107D9F723E0A2E4B1E001C01D9256
:1002C000AC34B207E1F70E940C050C94F20D0C94CB
:1002D000000080915001882391F1809100018823D2
:1002E000A1F08BB1843F39F484E78BB980EF85B9F5
:1002F0001092000118C085B186958F7085B985B1BF
:10030000811111C084EF8BB90EC085B190E0880FC8
:10031000991F807F85B985B1811105C08FE085B9AE
:1003200081E080930001109250018091510188304A
:1003300020F48F5F80935101089510925101089528
:10034000EF92FF920F931F93CF93DF93CDB7DEB75A
:100350002E970FB6F894DEBF0FBECDBF609142015D
:100360007091430180914401909145010E94DA0906
:10037000F62EE72E809106018F93809105018F93D1
:1003800008E011E01F930F93CE0101969F938F9386
:100390000E94080B809104018F93809103018F9339
:1003A0001F930F93CE0103969F938F930E94080B88
:1003B000809102018F93809101018F931F930F937E
:1003C000CE0105969F938F930E94080BEF92FF92A8
:1003D0001F930F93CE0107969F938F930E94080B54
:1003E000209178003091790040E050E068E17CE9AC
:1003F0008FE090E00E94E90ADA01C901885E93402B
:10040000A109B109BF93AF939F938F931F930F934C
:10041000CE010B969F938F930E94080B809107014A
:100420000FB6F894DEBF0FBECDBF823009F098C082
:100430000E94FF0761E08BE091E00E94C70860E046
:1004400087E30E94D80862E0CE0107960E94C708A1
:100450006FE087E30E94D80861E082E191E00E94AA
:10046000C70869E185E30E94D80862E0CE010B96D7
:100470000E94C70868E28CE30E94D80861E088E126
:1004800091E00E94C7086AE080E00E94D80880914D
:100490004D01882331F061E08CE191E00E94C708B2
:1004A00005C061E083E291E00E94C7086AE08DE246
:1004B0000E94D80861E08AE291E00E94C70864E1E6
:1004C00080E00E94D80861E08DE291E00E94C708B8
:1004D00064E188E20E94D80861E0CE0101960E94A2
:1004E000C70864E18DE20E94D80861E081E391E0F1
:1004F0000E94C7086EE180E00E94D80861E084E3B2
:1005000091E00E94C7086EE188E20E94D80861E08D
:10051000CE0103960E94C7086EE18DE20E94D808C2
:1005200061E08AE291E00E94C70868E280E00E94F0
:10053000D80861E08BE391E00E94C70868E288E296
:100540000E94D80861E0CE0105960E94C70868E2C3
:100550008DE20E94D80861E08AE291E00E94C7081B
:1005600080910701833009F098C00E94FF0761E085
:100570008BE091E00E94C70860E087E30E94D80802
:1005800062E0CE0107960E94C7086FE087E30E94F1
:10059000D80861E082E191E00E94C70869E185E343
:1005A0000E94D80862E0CE010B960E94C70868E25C
:1005B0008CE30E94D80861E088E191E00E94C708BE
:1005C0006AE080E00E94D80880914D01882331F0D4
:1005D00061E08CE191E00E94C70805C061E083E220
:1005E00091E00E94C7086AE08DE20E94D80861E0AD
:1005F0008AE291E00E94C70864E180E00E94D80886
:1006000061E08DE291E00E94C70864E188E20E9407
:10061000D80861E0CE0101960E94C70864E18DE22E
:100620000E94D80861E08AE291E00E94C7086EE16A
:1006300080E00E94D80861E084E391E00E94C7084E
:100640006EE188E20E94D80861E0CE0103960E9424
:10065000C7086EE18DE20E94D80861E081E391E075
:100660000E94C70868E280E00E94D80861E08BE33E
:1006700091E00E94C70868E288E20E94D80861E021
:10068000CE0105960E94C70868E28DE20E94D80854
:1006900061E08AE291E00E94C708809107018430FE
:1006A00009F098C00E94FF0761E08BE091E00E9492
:1006B000C70860E087E30E94D80862E0CE01079691
:1006C0000E94C7086FE087E30E94D80861E082E1DA
:1006D00091E00E94C70869E185E30E94D80862E0C2
:1006E000CE010B960E94C70868E28CE30E94D808EE
:1006F00061E088E191E00E94C7086AE080E00E9422
:10070000D80880914D01882331F061E08CE191E0BF
:100710000E94C70805C061E083E291E00E94C7081B
:100720006AE08DE20E94D80861E08AE291E00E94CE
:10073000C70864E180E00E94D80861E08DE291E0A2
:100740000E94C70864E188E20E94D80861E0CE01F7
:1007500001960E94C70864E18DE20E94D80861E01A
:100760008AE291E00E94C7086EE180E00E94D8080A
:1007700061E084E391E00E94C7086EE188E20E9494
:10078000D80861E0CE0103960E94C7086EE18DE2B1
:100790000E94D80861E08AE291E00E94C70868E2FE
:1007A00080E00E94D80861E08BE391E00E94C708D6
:1007B00068E288E20E94D80861E0CE0105960E94B6
:1007C000C70868E28DE20E94D80861E081E391E009
:1007D0000E94C70880910701813009F098C00E94EB
:1007E000FF0761E08BE091E00E94C70860E087E3CB
:1007F0000E94D80862E0CE0107960E94C7086FE009
:1008000087E30E94D80861E082E191E00E94C70876
:1008100069E185E30E94D80862E0CE010B960E9450
:10082000C70868E28CE30E94D80861E088E191E0A3
:100830000E94C7086AE080E00E94D80880914D01BC
:10084000882331F061E08CE191E00E94C70805C087
:1008500061E083E291E00E94C7086AE08DE20E94B5
:10086000D80861E081E391E00E94C70864E180E07C
:100870000E94D80861E08DE291E00E94C70864E11F
:1008800088E20E94D80861E0CE0101960E94C70864
:1008900064E18DE20E94D80861E08AE291E00E9462
:1008A000C7086EE180E00E94D80861E084E391E02F
:1008B0000E94C7086EE188E20E94D80861E0CE017C
:1008C00003960E94C7086EE18DE20E94D80861E09D
:1008D0008AE291E00E94C70868E280E00E94D8089E
:1008E00061E08BE391E00E94C70868E288E20E9421
:1008F000D80861E0CE0105960E94C70868E28DE243
:100900000E94D80861E08AE291E00E94C7080E9434
:10091000DD082E960FB6F894DEBF0FBECDBFDF9177
:10092000CF911F910F91FF90EF9008952091780043
:100930003091790040E050E068E17CE98FE090E0A0
:100940000E94E90ADA01C901885E9340A109B10950
:100950008C329140A105B10524F481E080934E01D1
:1009600002C01092B40080914E018823D1F0369BD2
:100970000FC06091420170914301809144019091B8
:10098000450120E030E0A9010E946309882321F09D
:100990008FEF8093B40003C085E58093B40010927C
:1009A0004E0108959091C00095FFFCCF8093C60042
:1009B000089586E08093680090E790936D0090E43E
:1009C00090936C002AE02093690023E02DBB909364
:1009D0007C0097EE90937A0010927B0091E09093C8
:1009E0007E0092E094BD25BD29EF27BD90936E0057
:1009F00093E29093B0008093B10090E89093B4009C
:100A00001092C5009FEF9093C40098E99093C100A5
:100A10008093C200789408958FEF84B988E88AB9EA
:100A200084E78BB917B880E488B98FE085B90E9454
:100A3000D9040E94A7070E94A0010E946901FDCF6E
:100A40001F920F920FB60F9211242F933F934F9343
:100A50005F936F937F938F939F93AF93BF93EF9326
:100A6000FF934C990CC0809107018F5F8093070121
:100A7000853018F081E0809307010E94A0014D9914
:100A80004BC080914D01811124C0809107018230BB
:100A900071F480910501909106018930910528F447
:100AA000019690930601809305010E94A001809118
:100AB0000701843071F48091010190910201893025
:100AC000910528F4019690930201809301010E9400
:100AD000A00180910701813031F480934D01809312
:100AE0004F010E94A001809107018330A9F48091F9
:100AF0000301909104018930910560F401962091E1
:100B00000501309106018217930720F490930401A8
:100B1000809303010E94A0014E994DC080914D0128
:100B200081112DC0809107018230B9F480910501B7
:100B3000909106018230910570F02091030130916F
:100B400004012F5F3F4F2817390728F4019790932E
:100B50000601809305010E94A00180910701843065
:100B600071F480910101909102018230910528F089
:100B7000019790930201809301010E94A00180914E
:100B80000701813031F410924D0110924F010E9403
:100B9000A00180910701833071F48091030190914D
:100BA00004018230910528F001979093040180930D
:100BB00003010E94A001FF91EF91BF91AF919F911E
:100BC0008F917F916F915F914F913F912F910F90F6
:100BD0000FBE0F901F9018951F920F920FB60F9295
:100BE0001124CF92DF92EF92FF922F933F934F9376
:100BF0005F936F937F938F939F93AF93BF93CF93A5
:100C0000EF93FF93C0904601D0904701E0904801D8
:100C1000F09049018FEFC81AD80AE80AF80AC09282
:100C20004601D0924701E0924801F092490180913B
:100C30004F01882319F120E030E040E752E4609151
:100C400042017091430180914401909145010E94BD
:100C5000680920E030E040E85FE30E94F7080E9466
:100C6000DA0970930201609301012AE030E0C901C2
:100C7000861B970B9093060180930501809151018B
:100C80008430C0F480910101909102014AEF489FA5
:100C90009001499F300D112440E050E0C701B6019A
:100CA0000E94C70A672B682B692BC1F581E08093EE
:100CB000500134C08430D9F44091030150910401B3
:100CC00088EE93E0489F9001499F300D589F300D6A
:100CD000112440E050E0C701B6010E94C70A672B0B
:100CE000682B692BD9F481E08093500117C0809163
:100CF0000501909106014AEF489F9001499F300DF0
:100D0000112440E050E0C701B6010E94C70A672BDA
:100D1000682B692B19F481E080935001C0914C013C
:100D2000C43020F52091010130910201809103012E
:100D300090910401820F931F4AEF489F9001499FB1
:100D4000300D112440E050E0C701B6010E94C70AEF
:100D5000672B682B692B09F055C081E08C0F8093BD
:100D60004C0181E38C0F0E94D2044CC0C83018F5AE
:100D700080910501909106012091030130910401B9
:100D8000821B930B4AEF489F9001499F300D11241D
:100D900040E050E0C701B6010E94C70A672B682BEC
:100DA000692B81F581E08C0F80934C0181E38C0FDE
:100DB0000E94D20427C0C93000F540910301509130
:100DC000040188EE93E0489F9001499F300D589FA1
:100DD000300D112440E050E0C701B6010E94C70A5F
:100DE000672B682B692B71F481E08C0F80934C0189
:100DF00081E38C0F0E94D20405C010924C0180E365
:100E00000E94D204C0904601D0904701E090480172
:100E1000F0904901C701B60128E833E140E050E015
:100E20000E94C70A672B682B692BE9F460914A017D
:100E300070914B01CB01880F991F680F791F660FC6
:100E4000771F660F771F80E090E00E94090A609389
:100E500042017093430180934401909345011092A5
:100E60004B0110924A01C701B60124EF31E040E086
:100E700050E00E94C70A672B682B692B21F40E945F
:100E800096040E94A001FF91EF91CF91BF91AF9185
:100E90009F918F917F916F915F914F913F912F9192
:100EA000FF90EF90DF90CF900F900FBE0F901F90AC
:100EB00018951F920F920FB60F9211248F939F9344
:100EC00080914A0190914B01019690934B01809340
:100ED0004A019F918F910F900FBE0F901F90189510
:100EE00098B19D7F98B9662329F098B1986098B918
:100EF00090E01FC098B1977F98B9FACF47E050E0D3
:100F0000491B5109282F30E002C0359527954A9595
:100F1000E2F720FF04C028B1206128B903C028B13E
:100F20002F7E28B928B1206228B928B12F7D28B991
:100F30009F5F983018F388B1826088B9089560E0A7
:100F40000E947007089561E00E9470070895CF9392
:100F5000DF9387B1826087B987B1846087B987B131
:100F6000886087B987B1806187B987B1806287B9A6
:100F700088B1846088B988B1826088B983EC99E0CF
:100F80000197F1F700C0000088B18B7F88B98BE52D
:100F900094E40197F1F700C0000088B1846088B93B
:100FA00088B18D7F88B981E20E949F0783E10E940A
:100FB0009F0786E00E949F0782EC0E949F0780E2C5
:100FC0000E949F0789E00E949F0780E80E949F0778
:100FD00080E40E949F07C0E0D0E004C080E00E944F
:100FE000A3072196C83F91E0D907C0F388E00E948B
:100FF0009F078CE00E949F07DF91CF91089580E8C2
:101000000E949F0780E40E949F0710924A0310925B
:101010004B0380E090E005C0FC01EE5AFE4F1082C9
:101020000196883F21E09207B8F30895262F269570
:101030002695269590E034E5239F800D911D11247F
:10104000442379F0677021E030E002C0220F331FA3
:101050006A95E2F7FC01EE5AFE4F8081282B20832F
:101060000895677021E030E002C0220F331F6A95B7
:10107000E2F7FC01EE5AFE4F209580812823208361
:101080000895EF92FF920F931F93CF93DF93E82E73
:10109000F62E00E045C02E2D30E020523109802F81
:1010A0006F2D0E94BB0AF901EE0FFF1FEE0FFF1F0D
:1010B000E20FF31FE80FF11DEC54FF4FE491812F75
:1010C0000E94BB0AF0E002C0F595E7958A95E2F729
:1010D000E0FF0AC060914B0380914A03610F41E039
:1010E000800F0E94160809C060914B0380914A034B
:1010F000610F40E0800F0E9416081F5F01C010E0E2
:10110000212F30E0CE01880F991F880F991F880F7B
:10111000991F8C1B9D0B281739070CF4BCCF0F5F50
:10112000202F30E0CF2DD0E0CE01880F991F880FFF
:10113000991F8C0F9D1F281739070CF3EAE4F3E081
:101140008F2D880F880F8F0D9081890F8F5F80837F
:10115000843570F010924A03EBE4F3E08F2D880F92
:10116000880F880F982F9F198081890F8F5F808348
:1011700080914B03803320F010924A0310924B036E
:10118000DF91CF911F910F91FF90EF9008951F93E2
:10119000CF93DF93EC01162F04C02196612F0E949C
:1011A000410888818111F9CFDF91CF911F91089576
:1011B00080934A0360934B030895CF93DF9380E8B5
:1011C0000E949F0780E40E949F07C0E0D0E007C014
:1011D000FE01EE5AFE4F80810E94A3072196C83F70
:1011E00081E0D807A8F3DF91CF9108955058BB272D
:1011F000AA270E940E090C94810A0E94730A38F0F3
:101200000E947A0A20F039F49F3F19F426F40C94D6
:10121000700A0EF4E095E7FB0C946A0AE92F0E942D
:10122000920A58F3BA17620773078407950720F0EC
:1012300079F4A6F50C94B40A0EF4E0950B2EBA2FAF
:10124000A02D0B01B90190010C01CA01A0011124CC
:10125000FF27591B99F0593F50F4503E68F11A1678
:10126000F040A22F232F342F4427585FF3CF469509
:1012700037952795A795F0405395C9F77EF41F162B
:10128000BA0B620B730B840BBAF09150A1F0FF0FF5
:10129000BB1F661F771F881FC2F70EC0BA0F621FE1
:1012A000731F841F48F4879577956795B795F795D1
:1012B0009E3F08F0B0CF9395880F08F09927EE0F66
:1012C0009795879508950E94460A08F481E008954D
:1012D0000E947C090C94810A0E947A0A58F00E94AC
:1012E000730A40F029F45F3F29F00C946A0A511107
:1012F0000C94B50A0C94700A0E94920A68F3992320
:10130000B1F3552391F3951B550BBB27AA27621701
:101310007307840738F09F5F5F4F220F331F441F0E
:10132000AA1FA9F335D00E2E3AF0E0E832D0915042
:101330005040E695001CCAF72BD0FE2F29D0660F2F
:10134000771F881FBB1F261737074807AB07B0E872
:1013500009F0BB0B802DBF01FF2793585F4F3AF078
:101360009E3F510578F00C946A0A0C94B50A5F3FD1
:10137000E4F3983ED4F3869577956795B795F795FE
:101380009F5FC9F7880F911D9695879597F90895E6
:10139000E1E0660F771F881FBB1F62177307840782
:1013A000BA0720F0621B730B840BBA0BEE1F88F791
:1013B000E09508950E949A0A88F09F5798F0B92FF7
:1013C0009927B751B0F0E1F0660F771F881F991F7A
:1013D0001AF0BA95C9F714C0B13091F00E94B40A5E
:1013E000B1E008950C94B40A672F782F8827B85F6E
:1013F00039F0B93FCCF3869577956795B395D9F7D2
:101400003EF490958095709561957F4F8F4F9F4FDB
:101410000895E89409C097FB3EF4909580957095E7
:1014200061957F4F8F4F9F4F9923A9F0F92F96E930
:10143000BB279395F695879577956795B795F111A5
:10144000F8CFFAF4BB0F11F460FF1BC06F5F7F4F42
:101450008F4F9F4F16C0882311F096E911C0772354
:1014600021F09EE8872F762F05C0662371F096E85D
:10147000862F70E060E02AF09A95660F771F881F2C
:10148000DAF7880F9695879597F90895990F0008D0
:10149000550FAA0BE0E8FEEF16161706E807F90746
:1014A000C0F012161306E407F50798F0621B730BE1
:1014B000840B950B39F40A2661F0232B242B252B62
:1014C00021F408950A2609F4A140A6958FEF811D05
:1014D000811D089597F99F6780E870E060E00895A6
:1014E0009FEF80EC089500240A941616170618063C
:1014F0000906089500240A94121613061406050618
:101500000895092E0394000C11F4882352F0BB0FA8
:1015100040F4BF2B11F460FF04C06F5F7F4F8F4F0B
:101520009F4F089557FD9058440F551F59F05F3F46
:1015300071F04795880F97FB991F61F09F3F79F0F5
:1015400087950895121613061406551FF2CF469577
:10155000F1DF08C0161617061806991FF1CF8695F9
:101560007105610508940895E894BB2766277727DD
:10157000CB0197F90895991B79E004C0991F96173C
:1015800008F0961B881F7A95C9F780950895A1E207
:101590001A2EAA1BBB1BFD010DC0AA1FBB1FEE1FED
:1015A000FF1FA217B307E407F50720F0A21BB30B38
:1015B000E40BF50B661F771F881F991F1A9469F7B4
:1015C00060957095809590959B01AC01BD01CF0110
:1015D0000895052E97FB1EF400940E94000B57FD02
:1015E00007D00E94C70A07FC03D04EF40C94000BEE
:1015F00050954095309521953F4F4F4F5F4F08953F
:1016000090958095709561957F4F8F4F9F4F08956E
:10161000AEE0B0E0EEE0FBE00C94C90D0D891E8950
:1016200086E08C831A8309838FEF9FE79E838D83E7
:10163000AE01475E5F4F6F89788DCE0101960E94A3
:101640002A0BEF81F885E00FF11F10822E96E4E05F
:101650000C94E50DABE0B0E0E0E3FBE00C94BB0DD7
:101660006C017B018A01FC0117821682838181FF54
:10167000CCC1CE0101963C01F6019381F70193FDA7
:10168000859193FF81917F01882309F4BAC1853246
:1016900039F493FD859193FF81917F01853229F47F
:1016A000B60190E00E94210DE7CF912C212C312C26
:1016B000FFE1F315D8F08B3279F038F4803279F00D
:1016C0008332A1F4232D20611DC08D3261F080335F
:1016D00069F4232D216016C0832D8260382EE32DFE
:1016E000E4603E2E2AC0F32DF8601DC037FC2DC0EB
:1016F00020ED280F2A3040F08E32B9F436FC81C13B
:10170000232D2064322E19C036FE06C08AE0989E32
:10171000200D1124922E11C0EAE02E9E200D1124DE
:10172000222EF32DF0623F2E08C08C3621F4832D3B
:101730008068382E02C0883641F4F70193FD859108
:1017400093FF81917F018111B3CF982F9F7D955495
:10175000933028F40C5F1F4F9FE399830DC08336AD
:1017600031F0833771F0833509F059C021C0F80199
:10177000808189830E5F1F4F88248394912C5301AD
:1017800013C02801F2E04F0E511CF801A080B18077
:1017900036FE03C0692D70E002C06FEF7FEFC50118
:1017A0000E94160D4C018201F32DFF773F2E16C0CB
:1017B000280122E0420E511CF801A080B18036FEC3
:1017C00003C0692D70E002C06FEF7FEFC5010E947A
:1017D0000B0D4C01F32DF0683F2E820133FC1BC032
:1017E000822D90E088169906B0F4B60180E290E070
:1017F0000E94210D2A94F4CFF50137FC859137FE24
:1018000081915F01B60190E00E94210D21102A9480
:1018100021E0821A91088114910471F7E8C084369E
:1018200011F0893641F5F80137FE07C060817181FA
:10183000828193810C5F1F4F08C060817181072EE8
:10184000000C880B990B0E5F1F4FF32DFF763F2E78
:1018500097FF09C090958095709561957F4F8F4F48
:101860009F4FF0683F2E2AE030E0A3010E945D0DFB
:10187000882E861845C0853731F4232D2F7EB22E51
:101880002AE030E025C0932D997FB92E8F36C1F024
:1018900018F4883579F0B5C0803719F0883721F011
:1018A000B0C0E92FE061BE2EB4FE0DC0FB2DF46088
:1018B000BF2E09C034FE0AC0292F2660B22E06C0F2
:1018C00028E030E005C020E130E002C020E132E055
:1018D000F801B7FE07C060817181828193810C5F3E
:1018E0001F4F06C06081718180E090E00E5F1F4F46
:1018F000A3010E945D0D882E8618FB2DFF773F2ED9
:1019000036FE0DC0232D2E7FA22E891458F434FEEE
:101910000BC032FC09C0832D8E7EA82E05C0B82CCA
:10192000A32C03C0B82C01C0B92CA4FE0FC0FE012B
:10193000E80DF11D8081803321F49A2D997EA92E26
:1019400009C0A2FE06C0B394B39404C08A2D867861
:1019500009F0B394A3FC11C0A0FE06C0B21488F431
:10196000280C922C9B180EC0B21460F4B60180E2D1
:1019700090E00E94210DB394F7CFB21418F42B1805
:1019800002C0982C212CA4FE10C0B60180E390E088
:101990000E94210DA2FE17C0A1FC03C088E790E0C1
:1019A00002C088E590E0B6010CC08A2D867859F017
:1019B000A1FE02C08BE201C080E2A7FC8DE2B6016D
:1019C00090E00E94210D891438F4B60180E390E084
:1019D0000E94210D9A94F7CF8A94F301E80DF11D2E
:1019E0008081B60190E00E94210D8110F5CF222068
:1019F00009F442CEB60180E290E00E94210D2A94C3
:101A0000F6CFF6018681978102C08FEF9FEF2B966C
:101A1000E2E10C94D70DFC0105906150704001107B
:101A2000D8F7809590958E0F9F1F0895FC01615007
:101A3000704001900110D8F7809590958E0F9F1FF0
:101A400008950F931F93CF93DF93FB01238121FD13
:101A500003C08FEF9FEF2CC022FF16C04681578135
:101A6000248135814217530744F4A081B1819D013F
:101A70002F5F3F4F318320838C93268137812F5FE7
:101A80003F4F3783268314C08B01EC01FB01008498
:101A9000F185E02D0995892BE1F6D80116968D91F7
:101AA0009C911797019617969C938E931697CE014B
:101AB000DF91CF911F910F910895FA01AA27283045
:101AC00051F1203181F1E8946F936E7F6E5F7F4F0B
:101AD0008F4F9F4FAF4FB1E03ED0B4E03CD0670F87
:101AE000781F891F9A1FA11D680F791F8A1F911DDA
:101AF000A11D6A0F711D811D911DA11D20D009F42A
:101B000068943F912AE0269F11243019305D31936B
:101B1000DEF6CF010895462F4770405D4193B3E054
:101B20000FD0C9F7F6CF462F4F70405D4A3318F0FB
:101B3000495D31FD4052419302D0A9F7EACFB4E0AC
:101B4000A6959795879577956795BA95C9F7009764
:101B50006105710508959B01AC010A2E0694579505
:101B6000479537952795BA95C9F7620F731F841F5C
:101B7000951FA01D08952F923F924F925F926F92F2
:101B80007F928F929F92AF92BF92CF92DF92EF920D
:101B9000FF920F931F93CF93DF93CDB7DEB7CA1B8E
:101BA000DB0B0FB6F894DEBF0FBECDBF09942A88B9
:101BB000398848885F846E847D848C849B84AA8461
:101BC000B984C884DF80EE80FD800C811B81AA81EE
:101BD000B981CE0FD11D0FB6F894DEBF0FBECDBFB9
:081BE000ED010895F894FFCF18
:101BE80001010001000200012575005041494E45E0
:101BF8004C00432F6D696E004C5558004D4F444FB3
:101C08002041004D4F444F204D00207C00726564F8
:101C1800003C7C0079656C6C6F7700677265656E57
:021C28000000BA
:00000001FF
